:020000040000FA
:10000000000083160313F03087008801FF3086005C
:1000100083120313FF30870088010E28E921803006
:10002000F410D921F4144530D9216E30D92174301F
:10003000D9216530D9217230D9212030D9215330CE
:10004000D9217430D9217230D9216930D9216E304B
:10005000D9216730D9210301030103010030C60013
:100060000030C8000030B900413084002030C100A9
:100070002030C2002030C3002030C4002030C50032
:10008000C030F410D9210F30D921F4144130C70009
:10009000D921F4101030D921B90A6430CF211030A1
:1000A000390603196F2006184C280030B9005A3061
:1000B0004706031D5E281F30C7005E284708013E23
:1000C000C700F414D921F4101030D921C830CF2141
:1000D00020304706031D4C284030C7004C284030D4
:1000E00047060319842847088000840AC60AF410CA
:1000F0001430D9210030B9004030C7000530460621
:10010000031984205E2808000830F410D921A0309B
:10011000CF21A030CF21A030CF21A030CF21A030DF
:10012000CF21A030CF210130F410D9218030D92146
:10013000F414453084000008D921840340300406BB
:10014000031D9B28C121C121C121C121C121F4105E
:100150000E30D921B921B921B921B921B921B9214B
:10016000B921B921B921B921B921B921B921B921BF
:10017000B921B921061C0E280130F410D921F41040
:100180008C30D921F414453084000008D921F410B2
:100190008D30D921F414443084000008D921F410A2
:1001A0008E30D921F414433084000008D921F41092
:1001B0008F30D921F414423084000008D921F41082
:1001C000CF30D921F414413084000008D921F43013
:1001D000CF21061C0E280130F410D921F4108D30E7
:1001E000D921F414453084000008D921F4108E3050
:1001F000D921F414443084000008D921F4108F3040
:10020000D921F414433084000008D921F410CF30F0
:10021000D921F414423084000008D921F410CE30E2
:10022000D921F414413084000008D921F430CF21C1
:10023000061C0E280130F410D921F4108E30D9217B
:10024000F414453084000008D921F4108F30D921EE
:10025000F414443084000008D921F410CF30D9219F
:10026000F414433084000008D921F410CE30D92191
:10027000F414423084000008D921F410CD30D92183
:10028000F414413084000008D921F430CF21061C39
:100290000E280130F410D921F4108F30D921F41434
:1002A000453084000008D921F410CF30D921F4144E
:1002B000443084000008D921F410CE30D921F41440
:1002C000433084000008D921F410CD30D921F41432
:1002D000423084000008D921F410CC30D921F41424
:1002E000413084000008D921F430CF21061C0E28AB
:1002F0000130F410D921F410CF30D921F414453055
:1003000084000008D921F410CE30D921F4144430EF
:1003100084000008D921F410CD30D921F4144330E1
:1003200084000008D921F410CC30D921F4144230D3
:1003300084000008D921F410CB30D921F4144130C5
:1003400084000008D921F430CF21C121C121C1216D
:10035000C121C121C121C121C121C121C121C1218D
:10036000C121C121C121C121C1210830F410D921ED
:100370009328061C0E281C30F410D921F430CF210C
:100380000800061C0E281830F410D921F430CF21B3
:100390000800F930F0000000F00BCB290800F10054
:1003A000C921F10BD02908000815C9210811C9215C
:1003B0000800F500F0398800F4188814D421C92108
:1003C000F50E7508F0398800F4188814D421C92175
:1003D00008006430CF21F030F40030308800D421A0
:1003E0000530CF21D421C921D4210812D4212830AD
:1003F000D9210830D9210130D9210630D9218030C6
:08040000D9210C30D9210800BC
:040408000034003488
:02400E00313748
:00000001FF
